:020000040800F2
:100000005007002029020008871D0008391D00083C
:10001000851D000889040008191E00080000000062
:100020000000000000000000000000008B1D000820
:10003000ED05000800000000891D00088D1D000866
:10004000430200084302000843020008430200087C
:10005000430200084302000843020008430200086C
:10006000430200084302000843020008430200085C
:10007000430200084302000843020008430200084C
:10008000430200084302000843020008011E000862
:100090000D1E000843020008430200084302000846
:1000A000430200084302000843020008430200081C
:1000B000430200084302000843020008430200080C
:1000C00043020008430200084302000843020008FC
:1000D00043020008430200084302000843020008EC
:1000E00043020008430200084302000843020008DC
:1000F00043020008430200084302000843020008CC
:1001000000000000000000000000000043020008A2
:1001100043020008430200084302000843020008AB
:10012000430200084302000843020008430200089B
:100130004302000843020008000000000000000025
:1001400043020008430200084302000800000000C8
:10015000000000000000000000000000000000009F
:1001600000000000000000004302000843020008F5
:100170004302000800000000000000000000000032
:10018000000000004302000800F002F800F03CF814
:100190000AA090E8000C82448344AAF10107DA45E2
:1001A00001D100F031F8AFF2090EBAE80F0013F0F8
:1001B000010F18BFFB1A43F001031847201D000070
:1001C000401D0000103A24BF78C878C1FAD8520701
:1001D00024BF30C830C144BF04680C6070470000C1
:1001E0000023002400250026103A28BF78C1FBD840
:1001F000520728BF30C148BF0B6070471FB501F0E0
:100200004FFE1FBD10B510BD00F0E2F81146FFF71C
:10021000F5FF01F025FE00F000F903B4FFF7F2FF4F
:1002200003BC00F007F9000009488047094800476F
:10023000FEE7FEE7FEE7FEE7FEE7FEE7FEE7FEE796
:10024000FEE7FEE704480549054A064B70470000F3
:10025000F11D00088901000850010020500700200E
:10026000500300205003002053EA020C00F0698084
:100270002DE9F04B4FF00006002B1FBFB3FA83F5BA
:1002800003FA05F424FA05F65E4012BF1643B2FAEB
:1002900082F502FA05F4C5F120051EBF22FA05FC1D
:1002A00044EA0C04203556EA044C4FEA144418BFC3
:1002B000641C4FF000084FF00009904271EB030CF2
:1002C00039D3002919BFB1FA81F701FA07F6B0FA5C
:1002D00080F700FA07F6C7F120071EBF20FA07FCD7
:1002E00046EA0C062037B6FBF4FCA7EB0507103FE7
:1002F00007F01F0BCBF120060CFA0BFB2CFA06F6CD
:1003000044BFB3460026202FA4BF5E464FF0000B2B
:100310005BEA060C08BF4FF0010B19EB0B09ABFBB6
:10032000027C48EB0608C01B06FB02CC0BFB03CC8F
:1003300071EB0C01C1E70B46024641464846BDE859
:10034000F08B13B54FF000004FF00001AFF30080C9
:10035000BDE81C407047B2F120030AD5C2F120036A
:1003600020FA02F001FA03F321FA02F140EA030055
:10037000704721FA03F04FF0000170474FF0000280
:1003800000B5134694469646203922BFA0E80C508B
:10039000A0E80C50B1F12001BFF4F7AF090728BF66
:1003A000A0E80C5048BF0CC05DF804EB890028BFE2
:1003B00040F8042B08BF704748BF20F8022B11F00B
:1003C000804F18BF00F8012B704770477047704787
:1003D000754600F02BF8AE4605006946534620F0FE
:1003E0000700854618B020B5FFF72CFFBDE8204078
:1003F0004FF000064FF000074FF000084FF0000BE1
:1004000021F00701AC46ACE8C009ACE8C009ACE893
:10041000C009ACE8C0098D46704710B50446AFF37B
:1004200000802046BDE81040FFF7F7BE0048704747
:10043000F000002001491820ABBEFEE726000200B4
:100440007047000010B50D4CA078012811D06078DD
:1004500001280DD10A48062104F110030161102181
:10046000016001461A1D074800F062F90020607023
:1004700010BD00F095FD01F0E1FC0000000000203F
:100480007400002040000020FEE70000174810B56F
:10049000082101610021816010220260C1600175A4
:1004A00018300123C0E90513016152010260426066
:1004B0008260C2604162C0E9071301460C4800F047
:1004C000A5F908B100F093F8094800F09FFC08B1C5
:1004D00000F08DF80321064800F018F9002803D039
:1004E000BDE8104000F083B810BD0000740000208B
:1004F0004000002070B5264C0126A4F12805207884
:10050000452808D160784E2805D1A078442802D12A
:1005100000F046FDAE7020786178E27800EB0120B3
:10052000A178090401EB02614218AA60207961797F
:10053000E37900EB0120A1790024090401EB0361B8
:100540000844E86023460220296A00F033FDD5E91B
:100550000810091D40F10000AC60C5E90810002337
:100560000220EA6800F026FDD5E90801001D41F1EE
:100570000001EC60C5E908010648054B014606612B
:10058000BDE87040183BA3F11002034800F0D0B85A
:1005900028000020740000204000002010B500F06A
:1005A00049FD0D4800680D4988420ED10C480021D4
:1005B00001600C494160402181600B4900F09CFCC6
:1005C00009490120091F487010BD00F0E9FCBDE891
:1005D000104000F083B8000000FC00087856341288
:1005E000680000200024000804000020704772B654
:1005F000FEE7000006490020C8610648016941F095
:1006000004010161016941F040010161704700008E
:10061000D000002000200240064A0021D161064996
:100620000A6942F002020A614861086940F040002C
:1006300008617047D000002000200240044B0022D7
:10064000DA61044A136943F00103136101807047C2
:10065000D0000020002002400A490020CA68D306CA
:10066000094A04D5D06940F00200D0611020CB685F
:100670005B0705D5D36943F00103D36140F0040063
:10068000C860704700200240D000002070B50546C9
:1006900000F068FE0646104C09E0681C07D025B142
:1006A00000F060FE801BA84201D9032070BDE06805
:1006B000C007F2D1E068800601D52020E060E06844
:1006C000C00602D4E068400703D5FFF7C5FF01204C
:1006D00070BD002070BD000000200240094810B528
:1006E000046800F08BFF084800F007F900F0F2FB07
:1006F00072B60448001F006880F30888A446BDE86D
:1007000010406047042400084000002090F820209A
:10071000012A07D0022A05D0416A41F480214162B2
:1007200001207047006842690A4342610020704717
:10073000F0B590F820500468A468012D05D0022D72
:1007400003D0416A41F480215DE014F0406F01D193
:10075000E50055D5C4F30164022C03D9416A41F484
:10076000000150E00125A5401D608D684FF4C07365
:100770009DB1CE6835434E6845EAC605066803EB71
:100780000417F5514FF4C275076805EB04150E699F
:100790007E51097D012905D009E00E88CD6845EA22
:1007A0004655EBE701684E5946F480764E51117973
:1007B000D579567941EA056195792D0445EA0625F2
:1007C00029434FF4C676056806EB0416A951117843
:1007D000D57841EA0561957852782D0445EA0222E0
:1007E00011434FF4C475026805EB041551510068BC
:1007F00003EB0411425842F0010242500020F0BDC8
:10080000416A41F4001141620120F0BD10B590F839
:1008100020300268012B07D0022B05D0416A41F439
:1008200080214162012010BDD2F8000240F0010099
:10083000C2F80002087D00F01F0301209840D2F8A2
:100840001C328343C2F81C32CB69B3B9D2F80C32E4
:100850008343C2F80C328C894B6864F31F434C69A4
:1008600002EBC404C4F840320C890B6864F31F43E4
:100870004C6902EBC404C4F84432CB69012B16D195
:10088000D2F80C320343C2F80C320C884B6864F384
:100890001F434C6902EBC404C4F840320C89CB6896
:1008A00064F31F434C6902EBC404C4F844328B69FF
:1008B000002BD2F804320FD053EA0003C2F80432FE
:1008C0000B69002BD2F8143208D00343C2F814325B
:1008D000096A012904D008E08343EFE78343F5E781
:1008E000D2F81C120143C2F81C12D2F8000220F008
:1008F0000100C2F80002002010BD10B504000ED0A7
:1009000000F0B0FA204600F00DFA2068016841F4CA
:10091000004101600020606284F8200010BD0120C9
:1009200010BD704730B590F82040012C05D0022C46
:1009300003D0416A41F480215DE00468002955D06C
:100940002469A40754D04FF4D874056804EB01144B
:100950002D5915F00405956005682D594ED0ED0808
:10096000556005682C5904F00204D4604FF4DA7421
:10097000056804EB01142D5905F00F051561056894
:100980002D59C5F30725956105682C59240C546130
:100990004FF4DC72046802EB0112A4581C70046866
:1009A000A458240A5C700468A458240C9C70046841
:1009B000A258120EDA704FF4DE72046802EB0112D4
:1009C000A4581C710468A458240A5C710468A458D3
:1009D000240C9C710468A258120EDA71006881B16F
:1009E000016941F020010161002030BDE468A8E701
:1009F000416A41F400114162012030BD6D0D156066
:100A0000AFE7C16841F02001C160EDE72DE9F05F7B
:100A10000546006800244669D0F804908768D0F83D
:100A20000CB0D0F810A0D0F81880F10748D0F90722
:100A300014D001218160B80703D5284600F043FA9D
:100A40000CE0780702D54FF4006407E0380702D5C0
:100A50004FF4805402E0284600F034FAF80516D529
:100A600029684FF480708860B80503D5284600F0E7
:100A70002CFA0CE0780502D544F4005407E0380560
:100A800002D544F4804402E0284600F01DFAF80341
:100A900016D529684FF480308860B80303D52846FE
:100AA00000F015FA0CE0780302D544F4004407E0A6
:100AB000380302D544F4803402E0284600F006FAF8
:100AC000300707D55FEACB6004D52968102044F4CD
:100AD0000074C86070074FF0080707D55FEA0B7015
:100AE00004D52868C760284600F07CF9B00706D511
:100AF0002868C068800702D0284600F075F97006A3
:100B000007D55FEACA6004D52968102044F48064E0
:100B10000861B00607D55FEA0A7004D52868076146
:100B2000284600F06FF9F00606D5286800698007AE
:100B300002D0284600F067F9B00308D55FEAC96023
:100B400005D5296810204860284600F05DF9F003BB
:100B500007D55FEA097004D528684760284600F089
:100B6000B7F9300446D55FEA497040D5F00504D5A1
:100B70005FEAC87001D044F00104B00504D55FEA13
:100B8000887001D544F00204700504D55FEA48700E
:100B900001D544F00404300529D518F0700F26D093
:100BA00008F07000402815D006DC102809D0202855
:100BB0000AD0302816D10AE050280ED0602811D172
:100BC0000EE044F008040DE044F010040AE044F0A4
:100BD000200407E044F0400404E044F0800401E015
:100BE00044F480742868816921F07001816129686A
:100BF00004204860002C05D0686A204368622846BB
:100C0000FFF78FFEBDE8F09F70B5040003D094F8A5
:100C1000200010B104E0012070BD204600F0A0F8D3
:100C20002068016841F00101016000F09BFB05466E
:100C3000052604E000F096FB401B0A2811D8206826
:100C40004068C007F6D02068016821F00201016009
:100C500000F088FB05460BE000F084FB401B0A28EF
:100C600006D9606A40F40030606284F82060D2E700
:100C7000206840688007EFD4207E01282068016842
:100C80003DD021F080010160607E0128206801686C
:100C900038D021F040010160A07E01282068016861
:100CA00033D021F020010160E07E01282068016836
:100CB0002ED041F010010160207F012820680168DA
:100CC00029D021F008010160607F012820680168B7
:100CD00024D021F004010160D4E902010843D4E9E1
:100CE0000412114308436168491E08432168C86122
:100CF00000206062012084F82000002070BD41F0D7
:100D00008001C0E741F04001C5E741F02001CAE79A
:100D100021F01001CFE741F00801D4E741F00401D0
:100D2000D9E7000010B500680B49884212D10B4882
:100D3000C16921F00071C1614FF4C0514FF0904082
:100D400000F08CF9132000F065FBBDE81040142082
:100D500000F060BB10BD00000064004000100240C5
:100D600010B586B0044614216846FFF707FB1B49FF
:100D7000206888422FD11A48C16941F00071C161D1
:100D8000C16901F000710591416941F4003141618F
:100D90004069694600F4003005904FF4C05000905F
:100DA000022001900020029003200390092004906B
:100DB000C00600F0EFF900221146132000F048FBB6
:100DC000132000F038FB00221146142000F040FBF5
:100DD000142000F030FB06B010BD0000006400409D
:100DE000001002407047000010B5044B044A002177
:100DF000FFF798FDBDE81040FFF77CBB28000020FE
:100E0000B4000020704770477047000070B504467A
:100E100090F82000012804D0606A40F4002060624D
:100E200018E0022084F820002068016821F0010108
:100E3000016000F097FA05460EE000BF00F092FA5C
:100E4000401B0A2808D9606A40F40030606205201F
:100E500084F82000012070BD20684068C007EDD1F3
:100E6000606270BD70B5044690F82000022804D07E
:100E7000606A40F48010606214E02068016841F00C
:100E80000101016000F06EFA05460DE000F06AFA1B
:100E9000401B0A2808D9606A40F4003060620520CF
:100EA00084F82000012070BD20684068C007EDD0A4
:100EB0002068016821F002010160012084F820000F
:100EC000002070BD7047704770477047704770478B
:100ED00070470000074810B54FF0FF310161002254
:100EE0000261C160C2608162826200F07BFA002010
:100EF00010BD0000001002402DE9F04705462648CD
:100F00000F460126017E01290FD00121814601767D
:100F10002868DFF888804CF25034012808D0A246B7
:100F20002046FFF7B3FBA0B130E00220BDE8F08718
:100F30002046FFF7ABFB00BBFFF75CFB2046FFF74B
:100F4000A5FBD8F81010064621F00401C8F81010CF
:100F50001CE04FF0FF3038606C6811E02046FFF76E
:100F60005BFB5046FFF792FBD8F81010060021F00B
:100F70000201C8F8101001D03C6007E004F50064DD
:100F8000D5E9010100EBC120A042E7D8002189F892
:100F900018103046CAE70000D000002000200240B0
:100FA0000348016941F080010161002070470000A1
:100FB000002002402DE9F05F07461C4888460024C7
:100FC000017E15461E46012909D001218146017680
:100FD0004CF2503A5046FFF759FB18B122E002207C
:100FE000BDE8F09F012F02D0022F00D00427D34686
:100FF000DFF83CA0220128463146FFF7ACF981B268
:1010000008EB4400FFF71AFB5846FFF73FFBDAF8FE
:10101000102022F00102CAF8102018B9641CE4B2B2
:10102000BC42E7D3002289F81820D9E7D00000207D
:1010300000200240064900200A69120607D5054A29
:101040004A60054A4A600969090600D501207047CF
:101050000020024023016745AB89EFCD2DE9F84F11
:1010600000230126DFF814C10F2780E006FA03F4FD
:1010700014EA01027AD023F003056544AA46D5F8A4
:1010800008909D074FEA157E07FA0EF505EA090B51
:101090000095B0F1904F05D0394DA84205D14FF0E1
:1010A000010816E04FF0000813E0364DA84202D1C7
:1010B0004FF002080DE0344DA84202D14FF0030872
:1010C00007E0324DA84202D14FF0040801E04FF092
:1010D000050808FA0EF8D84524D1DFF8B480D8F80E
:1010E000009029EA0209C8F8009008F10408D8F82D
:1010F000009029EA0209C8F8009008F10408D8F81D
:10110000009029EA0209C8F8009008F10408D8F80C
:1011100000509543C8F80050009DDAF80820AA4313
:10112000CAF80820D0F800804FEA4309032202FAE7
:1011300009F228EA0208C0F80080DD0800EB850506
:10114000AA46D5F820804FEA43794FEAD96907FAD1
:1011500009F528EA0508CAF82080C5689543C560E6
:101160004568A54345608468944384605B1C31FAFC
:1011700003F27FF47BAFBDE8F88F00000000014070
:101180000004004800080048000C00480010004817
:10119000000401402DE9F04FDFF8AC91002309F184
:1011A000040A03250AF1040B85B04FF0010C0F2748
:1011B0000BF1040EBFE000BF0CFA03F6324075D00D
:1011C0000C7904F00304012C01D0022C1BD184689B
:1011D00000945C0005FA04F80494009C24EA0804D6
:1011E0000094D1F80C80049C08FA04F8009C48EAAA
:1011F0000408C0F808804468B4430E79C6F30016AA
:101200009E40264346600C79E443A4070AD0C46894
:101210004FEA430805FA08F6B4438E6806FA08F662
:101220002643C6600C7904F00304022C10D1DC08BC
:1012300000EB84040294246A5E074FEAD66807FA3A
:1012400008F6B4430E6906FA08F62643029C2662A5
:1012500004684FEA430805FA08F6B4430E7906F02D
:10126000030606FA08F6264306604C6814F4403F6D
:1012700060D0364CA66946F00106A661A46923F049
:10128000030604F001040094314C34440294A46831
:101290009E074FEA167807FA08F6B443B0F1904F6C
:1012A00005D02C4EB04204D1012612E042E00026C7
:1012B0000FE0294EB04201D102260AE0274EB0428B
:1012C00001D1032605E0264EB04201D1042600E0FC
:1012D000052606FA08F62643029CA660D9F80060A7
:1012E0004C46D1F8048096435FEAC83800D51643CF
:1012F0002660DAF800405646D1F8048094435FEA4D
:10130000883800D514433460DBF800405E46D1F8DD
:10131000048094435FEAC82800D514433460DEF8A3
:1013200000407646D1F8048094435FEA882800D5CF
:10133000144334605B1C0A6832FA03F47FF43CAF58
:1013400005B0BDE8F08F000000040140001002402D
:10135000000001400004004800080048000C00485C
:1013600000100048014880687047000030000020ED
:101370000248816802781144816070473000002083
:10138000074810B5016841F010010160032000F02A
:101390007FF80F2000F006F800F026F8002010BDBE
:1013A0000020024070B50D4D04464FF47A71287844
:1013B000B1FBF0F00A490968B1FBF0F000F0A8FCBD
:1013C00048B9102C07D200222146501E00F040F8E8
:1013D00000206C6070BD012070BD00003000002056
:1013E0003C00002070470000094808B5816941F0C1
:1013F00001018161816901F001010091C16941F040
:101400008051C161C06900F08050009008BD0000AB
:101410000010024000280DDB00F01F020121914066
:101420004009800000F1E020C0F88011BFF34F8F29
:10143000BFF36F8F7047002809DB00F01F02012106
:1014400091404009800000F1E020C0F80011704791
:10145000F0B40E4B1B680C46C3F30223C3F107051F
:10146000042D00D90425191D072901D2002300E00D
:10147000DB1E012606FA05F1491E214099409E40D7
:10148000761E16403143F0BC00F0C7BC0CED00E006
:10149000064900F0070208684FF6FF03184040EACB
:1014A0000220034A10430860704700000CED00E082
:1014B0000000FA052DE9F0470F46050069D04A4EB5
:1014C000306800F00700B84209D2306820F0070009
:1014D00038433060306800F00700B84259D12878AE
:1014E000424C800705D56068A96820F0F0000843E9
:1014F00060602878C0073DD06968012001290DD0BF
:10150000022923D05FF0020393FAA3F2B2FA82F227
:1015100042F02002520904D0226803E04FF4003365
:10152000F2E7626A93FAA3F3B3FA83F303F01F03BB
:10153000984002422DD0606820F0030008436060AC
:10154000FFF710FF804641F288390CE04FF000733E
:10155000DAE700BFFFF706FFA0EB0801494502D913
:101560000320BDE8F0876068696800F00C00B0EB0C
:10157000810FEFD1306800F00700B8420BD9306816
:1015800020F0070038433060306800F00700B842B0
:1015900001D00120E5E72878400705D56068E968B3
:1015A00020F4E060084360602878000706D5606892
:1015B000296920F4605040EAC100606000F08EF8B4
:1015C0006168F02292FAA2F201F0F001B2FA82F21E
:1015D000D140074A515CC840064908600648006887
:1015E000FFF7E0FE0020BCE70020024000100240B0
:1015F000CA1E00083C0000203400002070B5304CAA
:10160000206840F001002060FFF7ACFE054604E0D2
:10161000FFF7A8FE401B022837D820688007F7D5BF
:10162000206820F0F80040F08000206060682549C4
:1016300008406060FFF796FE054641F2883604E0F8
:10164000FFF790FE401BB0421FD8606810F00C0FEF
:10165000F6D11E491C4808601D480068FFF7A2FE2D
:1016600008B1012070BD20681A4908402060206838
:1016700020F480202060FFF775FE054607E000BFDC
:10168000FFF770FE401B022801D9032070BD2068BF
:101690008001F5D400206060E0622063A16841F41D
:1016A0001F01A160A0600120010691FAA1F10A4A80
:1016B000B1FA81F102EB8101C1F88004002070BD14
:1016C000001002400CC0FFF800127A003C0000201D
:1016D00034000020FFFFF6FE00004242164A10B51B
:1016E0005168164801F00C03042B20D0082B1ED1A2
:1016F0004FF4701494FAA4F401F47013B4FA84F45F
:10170000E3400F4CD26AE45C0F2393FAA3F302F098
:101710000F02B3FA83F3DA40094B1033C9039A5C22
:1017200006D500231946FEF79FFDA0FB040110BD5E
:101730000448A4FB000110BD0010024000127A0012
:10174000AA1E000800093D002DE9F84F050071D0E0
:101750002878FC4EC0074FF0010425D0706867045C
:10176000C0F38100012807D07068C0F3810002280F
:101770001BD17068C00318D597FAA7F0B0FA80F0B3
:1017800040F02000400901D0306800E0706A97FA0C
:10179000A7F1B1FA81F101F01F0104FA01F1084249
:1017A00065D068680028D2D061E06868B0F5803FF5
:1017B0000BD010B1B0F5A02F17D0306820F48030D6
:1017C0003060306820F4802002E0306840F48030DF
:1017D0003060F06AA96820F00F000843F062686882
:1017E00020B3FFF7BFFD80460AE0306840F4802058
:1017F0003060EAE7FFF7B6FDA0EB0800642871D877
:1018000097FAA7F0B0FA80F040F02000400901D02C
:10181000306800E0706A97FAA7F1B1FA81F101F03F
:101820001F0104FA01F10842E4D020E0FFF79AFD1D
:10183000804607E0C2E000BFFFF794FDA0EB080080
:101840006428DCD897FAA7F0B0FA80F040F02000C6
:10185000400901D0306800E0706A97FAA7F1B1FA48
:1018600081F101F01F0104FA01F10842E4D1287866
:10187000DFF8D48280074FF0000A4FF0020730D51E
:1018800070684FF0F80B10F00C0F07D07068C0F3C1
:101890008100022827D17068C00324D497FAA7F0EA
:1018A000B0FA80F040F02000400901D0306800E03C
:1018B000706A97FAA7F1B1FA81F101F01F0104FAF9
:1018C00001F1084202D02869012877D130689BFADB
:1018D000ABF220F0F8016869B2FA82F2904001435D
:1018E00031605AE064E1286988B394FAA4F0B0FA50
:1018F00080F048F82040FFF735FD814606E000BF44
:10190000FFF730FDA0EB090002289AD897FAA7F05C
:10191000B0FA80F040F02000400901D0306800E0CB
:10192000706A97FAA7F1B1FA81F101F01F0104FA88
:1019300001F10842E4D030689BFAABF26969B2FA6F
:1019400082F220F0F80091400843306025E0FFE784
:1019500094FAA4F0B0FA80F048F820A0FFF702FD56
:10196000814605E0FFF7FEFCA0EB09000228CCD879
:1019700097FAA7F0B0FA80F040F02000400901D0BB
:10198000306800E0706A97FAA7F1B1FA81F101F0CE
:101990001F0104FA01F10842E4D1287800076CD550
:1019A000A869A8B394FAA4F0B0FA80F008EB80001C
:1019B000C0F88044FFF7D6FC814607E0A4E100BFF1
:1019C000FFF7D0FCA0EB090002289ED897FAA7F0F9
:1019D000B0FA80F040F06000B4EB501F01D13068E5
:1019E0000BE097FAA7F0B0FA80F040F06000B7EB98
:1019F000501F01D1306A00E0706A97FAA7F1B1FA7E
:101A000081F101F01F0104FA01F21042D8D034E054
:101A1000FFE794FAA4F1B1FA81F108EB8101C1F872
:101A200080A4FFF79FFC814606E000BFFFF79AFC09
:101A3000A0EB090002289AD897FAA7F0B0FA80F034
:101A400040F06000B4EB501F01D130680BE097FA12
:101A5000A7F0B0FA80F040F06000B7EB501F01D162
:101A6000306A00E0706A97FAA7F1B1FA81F101F0EB
:101A70001F0104FA01F21042D8D12878400768D536
:101A8000F0694FF00009C00009D4F06940F08050BF
:101A9000F061F0694FF0010900F0805000902B4890
:101AA0000168C90512D4016841F480710160FFF733
:101AB00059FC834606E000BFFFF754FCA0EB0B0087
:101AC000642875D821480068C005F5D5E868012864
:101AD0000AD008B1052811D0306A20F00100306228
:101AE000306A20F0040002E0306A40F00100306209
:101AF000E86868B3FFF736FC83460DE0306A40F0D3
:101B000004003062F0E700BFFFF72CFCA0EB0B01F4
:101B100041F2883081424BD897FAA7F0B0FA80F0B2
:101B200040F04000B4EB501F01D1306813E097FA49
:101B3000A7F0B0FA80F040F04000B7EB501F09D199
:101B4000306A08E00010024000004242007000408D
:101B50000CE040E0706A97FAA7F1B1FA81F101F068
:101B60001F0104FA01F21042CED02DE0FFF7FAFB7C
:101B7000834607E0FFF7F6FBA0EB0B0141F288304C
:101B8000814215D897FAA7F0B0FA80F040F04000F3
:101B9000B4EB501F01D130680CE097FAA7F0B0FA0F
:101BA00080F040F04000B7EB501F02D1306A01E0F6
:101BB00083E0706A97FAA7F1B1FA81F101F01F0191
:101BC00004FA01F21042D5D1B9F1000F03D0F06947
:101BD00020F08050F061E86980B37168C1F3810141
:101BE000022977D04FF080714F000228504609D06B
:101BF00091FAA1F1B1FA81F148F82100FFF7B2FBA7
:101C000005465DE0894691FAA1F1B1FA81F1C2463B
:101C100048F82100FFF7A6FB804605E0FFF7A2FB8E
:101C2000A0EB0800022848D897FAA7F0B0FA80F095
:101C300040F02000400902D0306801E066E0706AA0
:101C400097FAA7F1B1FA81F101F01F0104FA01F14D
:101C50000842E3D1D5E908100843716821F47411F2
:101C60000843706099FAA9F0B0FA80F04AF8204071
:101C7000FFF778FB054604E0FFF774FB401B0228E2
:101C80001BD897FAA7F0B0FA80F040F02000400986
:101C900001D0306800E0706A97FAA7F1B1FA81F1DB
:101CA00001F01F0104FA01F10842E5D02EE000BF67
:101CB000FFF758FB401B022802D90320BDE8F88F2C
:101CC00097FAA7F0B0FA80F040F02000400902D067
:101CD000306801E00BE0706A97FAA7F1B1FA81F180
:101CE00001F01F0104FA01F10842E1D10EE00128E0
:101CF000E4D070682A6A00F48031914204D1696AA4
:101D000000F47010884201D00120D7E70020D5E709
:101D100010B5401EB0F1807F01D3012010BD4FF0FF
:101D2000E02460610F21601700F077F80020A061C7
:101D300007202061002010BDFEE70000104810B50C
:101D40000E4901600421416000214FF4602281604E
:101D5000C0E903124FF480124261017601224276FB
:101D60008276C27601774177FEF74EFF08B172B6F0
:101D7000FEE7BDE81040FEF789BB000000640040AC
:101D800040000020FEE7FEE770477047FFF7F0BA1B
:101D900030B58FB028216846FEF7F0FA14210AA862
:101DA000FEF7ECFA01210804CDE9001000240294AA
:101DB00002250491CDE907504FF4E01009906846E0
:101DC000FFF7C2FC08B172B6FEE70F20CDE90A05A5
:101DD0004FF48060CDE90C4002210AA80E94FFF771
:101DE00069FB002801D072B6FEE70FB030BD0000DD
:101DF0000248016841F470010160704788ED00E01D
:101E00000148FEF703BE0000400000200148FEF735
:101E1000FDBD000040000020FEE70907090E002874
:101E200004DB00F1E02080F80014704700F00F00A0
:101E300000F1E02080F8141D70470000BFF34F8FC1
:101E400005480168054A01F4E06111430160BFF3F0
:101E50004F8F00BFFDE700000CED00E00400FA0525
:101E600008B5FEF79BFBFFF78BFAFFF791FF0B48D6
:101E7000416941F480014161416901F480010091AF
:101E8000416941F400314161406900F40030009043
:101E9000FFF754FFFEF7D6FAFCE7000000100240FF
:101EA0004FF04070E1EE100A704702030405060788
:101EB00008090A0B0C0D0E0F101001020304050691
:101EC0000708090A0B0C0D0E0F100000000000009F
:101ED000000001020304060708090000FC1E0008B8
:101EE0000000002040000000C40100083C1F000862
:101EF0004000002010070000E0010008460000003C
:101F000000000000000000000000000000000000D1
:101F10005245414459000000000000000024000820
:101F200000000000000000000000000001000000B0
:0C1F3000100000000000000000127A0009
:040000050800018965
:00000001FF
