:020000040800F2
:1000000058070020ED0100081F1C0008D51B000840
:100010001D1C00084D040008931C0008000000008F
:10002000000000000000000000000000231C000889
:10003000C905000800000000211C0008251C00085C
:10004000070200080702000807020008070200086C
:10005000070200080702000807020008070200085C
:10006000070200080702000807020008070200084C
:10007000070200080702000807020008070200083C
:100080000702000807020008070200085D040008D4
:1000900051040008070200080702000807020008D0
:1000A000070200080702000807020008070200080C
:1000B00007020008070200080702000807020008FC
:1000C00007020008070200080702000807020008EC
:1000D00007020008070200080702000807020008DC
:1000E00007020008070200080702000800000000DD
:1000F0000000000000000000000000000000000000
:1001000000000000000000000702000807020008CD
:10011000070200080702000807020008070200089B
:10012000070200080702000807020008070200088B
:10013000070200080000000000000000070200089D
:10014000070200080702000807020008070200086B
:1001500000F002F800F03AF80AA090E8000C82449F
:100160008344AAF10107DA4501D100F02FF8AFF27C
:10017000090EBAE80F0013F0010F18BFFB1A43F085
:1001800001031847A41B0000C41B0000103A24BF41
:1001900078C878C1FAD8520724BF30C830C144BFEC
:1001A00004680C607047000000230024002500262E
:1001B000103A28BF78C1FBD8520728BF30C148BFCA
:1001C0000B6070471FB51FBD10B510BD00F0E2F801
:1001D0001146FFF7F7FF01F07FFD00F000F903B4CF
:1001E000FFF7F2FF03BC00F007F900000948804761
:1001F00009480047FEE7FEE7FEE7FEE7FEE7FEE709
:10020000FEE7FEE7FEE7FEE704480549054A064B20
:1002100070470000911C000851010008580100209F
:1002200058070020580300205803002053EA020C0E
:1002300000F069802DE9F04B4FF00006002B1FBF46
:10024000B3FA83F503FA05F424FA05F65E4012BF0B
:100250001643B2FA82F502FA05F4C5F120051EBF75
:1002600022FA05FC44EA0C04203556EA044C4FEA15
:10027000144418BF641C4FF000084FF0000990426E
:1002800071EB030C39D3002919BFB1FA81F701FAD8
:1002900007F6B0FA80F700FA07F6C7F120071EBF8D
:1002A00020FA07FC46EA0C062037B6FBF4FCA7EB65
:1002B0000507103F07F01F0BCBF120060CFA0BFBD4
:1002C0002CFA06F644BFB3460026202FA4BF5E4694
:1002D0004FF0000B5BEA060C08BF4FF0010B19EB67
:1002E0000B09ABFB027C48EB0608C01B06FB02CCEB
:1002F0000BFB03CC71EB0C01C1E70B4602464146F8
:100300004846BDE8F08B13B54FF000004FF00001F8
:10031000AFF30080BDE81C407047B2F120030AD55E
:10032000C2F1200320FA02F001FA03F321FA02F1EC
:1003300040EA0300704721FA03F04FF000017047D4
:100340004FF0000200B5134694469646203922BF6E
:10035000A0E80C50A0E80C50B1F12001BFF4F7AFB9
:10036000090728BFA0E80C5048BF0CC05DF804EB9B
:10037000890028BF40F8042B08BF704748BF20F809
:10038000022B11F0804F18BF00F8012B7047704707
:1003900070477047754600F02BF8AE460500694679
:1003A000534620F00700854618B020B5FFF72CFF14
:1003B000BDE820404FF000064FF000074FF0000866
:1003C0004FF0000B21F00701AC46ACE8C009ACE8E7
:1003D000C009ACE8C009ACE8C0098D46704710B54B
:1003E0000446AFF300802046BDE81040FFF7F7BE9B
:1003F00000487047F800002001491820ABBEFEE716
:10040000260002007047000010B50D4CA0780128AE
:1004100011D0607801280DD10A48062104F110039B
:1004200001611021016001461A1D074800F084F99E
:100430000020607010BD00F0C9FD01F03BFC000021
:10044000000000207800002040000020FEE70000AF
:10045000014800F0EEBA000040000020014800F022
:10046000E8BA000040000020174810B508210161DB
:100470000021816010220260C160017518300123E3
:10048000C0E9051301615201026042608260C260EE
:100490004162C0E9071301460C4800F0BBF908B1FE
:1004A00000F093F8094800F0C7FC08B100F08DF89F
:1004B0000321064800F02EF9002803D0BDE81040C3
:1004C00000F083B810BD000078000020400000203C
:1004D00070B5264C0126A4F128052078452808D1BE
:1004E00060784E2805D1A078442802D100F06EFD36
:1004F000AE7020786178E27800EB0120A1780904E1
:1005000001EB02614218AA6020796179E37900EB7E
:100510000120A1790024090401EB03610844E8608B
:1005200023460220296A00F05BFDD5E90810091D69
:1005300040F10000AC60C5E9081000230220EA6821
:1005400000F04EFDD5E90801001D41F10001EC600D
:10055000C5E908010648054B01460661BDE8704043
:10056000183BA3F11002034800F0E6B82800002071
:10057000780000204000002010B500F071FD0D480B
:1005800000680D4988420ED10C48002101600C49D9
:1005900081604021C1600B4900F0C4FC0949012081
:1005A000091F487010BD00F011FDBDE8104000F0BB
:1005B00099B8000000FC000878563412680000204A
:1005C0000024000804000020704772B6FEE7000017
:1005D00006490020C8610648016941F00401016133
:1005E000016941F04001016170470000D80000201E
:1005F00000200240064A0021D16106490A6942F002
:1006000002020A614861086940F0400008617047D1
:10061000D800002000200240044B0022DA61044A86
:10062000136943F00103136101807047D800002073
:100630000020024014480022C168CB06134904D5AB
:10064000CA6942F00202CA611022C3685B0705D57D
:10065000CB6943F00103CB6142F00402C369DB07BD
:1006600007D0CB6943F00403CB61C16921F00101DC
:10067000C161A2F58071013901D0C2607047C169C2
:1006800021F00101C161704700200240D800002024
:1006900070B5054600F066FE0646114C09E0681C80
:1006A00007D025B100F05EFE801BA84201D90320CF
:1006B00070BDE068C007F2D1E068800601D5202057
:1006C000E060E068C00605D4E069C00702D1E068D8
:1006D000400703D5FFF7AEFF012070BD002070BDBD
:1006E00000200240094810B5046800F081FF084866
:1006F00000F016F900F004FC72B60448001F006810
:1007000080F30888A446BDE8104060470424000830
:100710004000002090F82020012A07D0022A05D0AE
:10072000416A41F4802141620120704700684269BA
:100730000A43426100207047F0B590F820500468E9
:10074000A468012D05D0022D03D0416A41F4802117
:100750005DE014F0406F01D1E50055D5C4F30164AC
:10076000022C03D9416A41F4000150E00125A54063
:100770001D608D684FF4C0739DB1CE6835434E68DF
:1007800045EAC605066803EB0417F5514FF4C27538
:10079000076805EB04150E697E51097D012905D016
:1007A00009E00E88CD6845EA4655EBE701684E59E9
:1007B00046F480764E511179D579567941EA056132
:1007C00095792D0445EA062529434FF4C676056838
:1007D00006EB0416A9511178D57841EA05619578A0
:1007E00052782D0445EA022211434FF4C475026881
:1007F00005EB04155151006803EB0411425842F017
:10080000010242500020F0BD416A41F400114162F2
:100810000120F0BD10B590F82020012A07D0022A4F
:1008200005D0416A41F480214162012010BD3B485E
:10083000D0F8002242F00102C0F80022D0F80022D5
:1008400022F47C52C0F80022D0F800224B6A42EA1F
:100850000322C0F800220A7D02F01F0301229A4001
:10086000D0F81C329343C0F81C32CB69B3B9D0F82E
:100870000C329343C0F80C328C894B6864F31F43ED
:100880004C6900EBC404C4F840320C890B6864F373
:100890001F434C6900EBC404C4F84432CB69012BFC
:1008A00016D1D0F80C321343C0F80C320C884B68C8
:1008B00064F31F434C6900EBC404C4F840320C8954
:1008C000CB6864F31F434C6900EBC404C4F84432A2
:1008D0008B69002BD0F804320ED01343C0F80432D9
:1008E0000B69002BD0F8143208D01343C0F814322F
:1008F000096A012904D008E09343EFE79343F5E741
:10090000D0F81C121143C0F81C12D0F8001221F0CC
:100910000101C0F80012002010BD0000006400407A
:1009200010B504000ED000F0B3FA204600F00CFA27
:100930002068016841F4004101600020606284F891
:10094000200010BD012010BD704730B590F8204048
:10095000012C05D0022C03D0416A41F480215DE0D6
:100960000468002955D02469A40754D04FF4D874E2
:10097000056804EB01142D5915F004059560056810
:100980002D594ED0ED08556005682C5904F002042D
:10099000D4604FF4DA74056804EB01142D5905F0A6
:1009A0000F05156105682D59C5F307259561056883
:1009B0002C59240C54614FF4DC72046802EB0112D0
:1009C000A4581C700468A458240A5C700468A458D5
:1009D000240C9C700468A258120EDA704FF4DE7278
:1009E000046802EB0112A4581C710468A458240A7C
:1009F0005C710468A458240C9C710468A258120EFF
:100A0000DA71006881B1016941F0200101610020C3
:100A100030BDE468A8E7416A41F400114162012059
:100A200030BD6D0D1560AFE7C16841F02001C160B8
:100A3000EDE72DE9F05F0546006800244669D0F82F
:100A400004908768D0F80CB0D0F810A0D0F81880C7
:100A5000F10748D0F90714D001218160B80703D508
:100A6000284600F046FA0CE0780702D54FF40064FF
:100A700007E0380702D54FF4805402E0284600F022
:100A800037FAF80516D529684FF480708860B805E4
:100A900003D5284600F02FFA0CE0780502D544F47F
:100AA000005407E0380502D544F4804402E02846AB
:100AB00000F020FAF80316D529684FF480308860DA
:100AC000B80303D5284600F018FA0CE0780302D5E5
:100AD00044F4004407E0380302D544F4803402E0D3
:100AE000284600F009FA300707D55FEACB6004D545
:100AF0002968102044F40074C86070074FF008079C
:100B000007D55FEA0B7004D52868C760284600F057
:100B10007FF9B00706D52868C068800702D028464C
:100B200000F078F9700607D55FEACA6004D5296835
:100B3000102044F480640861B00607D55FEA0A70AB
:100B400004D528680761284600F072F9F00606D53A
:100B500028680069800702D0284600F06AF9B003CF
:100B600008D55FEAC96005D5296810204860284685
:100B700000F060F9F00307D55FEA097004D5286832
:100B80004760284600F0BAF9300446D55FEA49705C
:100B900040D5F00504D55FEAC87001D044F00104E7
:100BA000B00504D55FEA887001D544F002047005F1
:100BB00004D55FEA487001D544F00404300529D516
:100BC00018F0700F26D008F07000402815D006DC11
:100BD000102809D020280AD0302816D10AE0502841
:100BE0000ED0602811D10EE044F008040DE044F06E
:100BF00010040AE044F0200407E044F0400404E05C
:100C000044F0800401E044F480742868816921F094
:100C100070018161296804204860002C05D0686A51
:100C2000204368622846FFF78FFEBDE8F09F70B54D
:100C3000040003D094F8200010B104E0012070BD3E
:100C4000204600F09FF82068016841F00101016032
:100C500000F088FB0546052604E000F083FB401BFE
:100C60000A2811D820684068C007F6D020680168BB
:100C700021F00201016000F075FB05460BE000F079
:100C800071FB401B0A2806D9606A40F4003060629C
:100C900084F82060D2E7206840688007EFD4207E87
:100CA0000128206801683DD021F080010160607E4C
:100CB00001282068016838D021F040010160A07E41
:100CC00001282068016833D021F020010160E07E16
:100CD0000128206801682ED041F010010160207FBA
:100CE00001282068016829D021F008010160607F97
:100CF00001282068016824D021F004010160D4E9B2
:100D000002010843D4E90412114308436168491EF3
:100D100008432168C86100206062012084F8200037
:100D2000002070BD41F08001C0E741F04001C5E7FF
:100D300041F02001CAE721F01001CFE741F008019E
:100D4000D4E741F00401D9E710B500680A498842A8
:100D500011D10A48C16921F00071C1614FF4C0513D
:100D6000074800F091F9132000F05CFBBDE810404B
:100D7000142000F057BB10BD00640040001002407A
:100D80000008014010B586B0002100910191029148
:100D9000039100681B49884232D11B48C16941F068
:100DA0000071C161C16901F000710491816941F074
:100DB000040181618069154C00F0040004904FF437
:100DC000006000906946204600F0DCF9A014009015
:100DD00002200190032003906946204600F0D2F9DA
:100DE00000221146132000F03BFB132000F02BFBE8
:100DF00000221146142000F033FB142000F023FBE6
:100E000006B010BD00640040001002400008014020
:100E10007047000010B5044B044A0021FFF795FD10
:100E2000BDE81040FFF754BB28000020B8000020A8
:100E3000704770477047000070B5044690F8200076
:100E4000012804D0606A40F40020606218E00220AB
:100E500084F820002068016821F00101016000F0A1
:100E600081FA05460EE000BF00F07CFA401B0A281C
:100E700008D9606A40F400306062052084F82000E0
:100E8000012070BD20684068C007EDD1606270BD70
:100E900070B5044690F82000022804D0606A40F43F
:100EA0008010606214E02068016841F00101016077
:100EB00000F058FA05460DE000F054FA401B0A28ED
:100EC00008D9606A40F400306062052084F8200090
:100ED000012070BD20684068C007EDD0206801681F
:100EE00021F002010160012084F82000002070BD83
:100EF00070477047704770477047704770470000F1
:100F0000074810B54FF0FF31C16000220261C16097
:100F1000C2608162826200F065FA002010BD0000AC
:100F2000001002402DE9F047054626480F460126ED
:100F3000017E01290FD00121814601762868DFF862
:100F400088804CF25034022808D0A2462046FFF791
:100F50009FFBA8B131E00220BDE8F0872046FFF7F3
:100F600097FB08BB0120FFF733FB2046FFF790FB00
:100F7000D8F81010064621F00401C8F810101CE043
:100F80004FF0FF303860AC6811E02046FFF732FBCD
:100F90005046FFF77DFBD8F81010060021F0020143
:100FA000C8F8101001D03C6007E004F50064D5E9F2
:100FB000020100EBC120A042E7D8002189F81810F7
:100FC0003046C9E7D80000200020024003480169EC
:100FD00041F08001016100207047000000200240C4
:100FE0002DE9F05F07461C4888460024017E15461F
:100FF0001E46012909D00121814601764CF2503A62
:101000005046FFF745FB18B122E00220BDE8F09FF3
:10101000012F02D0022F00D00427D346DFF83CA0D6
:10102000220128463146FFF778F981B208EB4400E7
:10103000FFF7F2FA5846FFF72BFBDAF8102022F000
:101040000102CAF8102018B9641CE4B2BC42E7D30C
:10105000002289F81820D9E7D8000020002002409B
:10106000064900200A69120607D5054A4A60054A62
:101070004A600969090600D5012070470020024036
:1010800023016745AB89EFCD2DE9F0430023374FAE
:101090000F2566E001229A400A4060D023F0030445
:1010A000E619D6F808809C074FEA147C05FA0CF97B
:1010B00009EA0804DFF8B880404502D14FF0000883
:1010C00016E0DFF8B080404502D14FF001080FE094
:1010D000DFF8A480404502D14FF0020808E0DFF8B5
:1010E0009C80404502D14FF0030801E04FF0040816
:1010F00008FA0CF8A04515D1D6F808C02CEA090C5E
:10110000C6F808C01E4E346894433460341D266807
:1011100096432660241D266896432660241D266873
:1011200096432660FF2A01D8064601E000F1040636
:101130004FEA830401D9A4F12004D6F800C005FACF
:1011400004F82CEA080C4FF0040808FA04F84CEAFA
:10115000080CC6F800C0C46824EA0204C46003F1A5
:10116000010331FA03F295D1BDE8F083000001409C
:1011700000080140000C0140001001400014014033
:10118000000401402DE9F84FDFF8B891002409F17F
:10119000040A0AF1040B23460F270BF1040EC9E0E1
:1011A0000125A5402A40AA427DD1674ED1F804C04E
:1011B000ACEB0608B44532D014DCBCF1030F3AD0D6
:1011C00009DCBCF1000F2AD0BCF1010F1CD0BCF12E
:1011D000020F31D11DE0BCF1110F17D0BCF1120F7D
:1011E0002AD119E0B8F5881F19D006DCB8F5803F80
:1011F00015D0B8F5801F1FD111E0B8F5001F0ED033
:10120000B8F5041F18D10AE0CB6815E0CB681B1DA8
:1012100012E0CB6808330FE0CB680C330CE08B682E
:101220002BB1012B4FF0080303D0456104E00423E8
:1012300002E0056100E00023FF2A01D8064601E034
:1012400000F104064FEA840501D9A5F12005D6F87E
:10125000008007FA05FC28EA0C0803FA05F548EABD
:101260000508C6F800804D68ED0062D5374DAE69BF
:1012700046F00106AE61AD6924F0030605F00105F4
:101280000095334D06EB050CDCF80850A607360F29
:1012900007FA06F825EA0805DFF8B880404503D1CB
:1012A0004FF0000817E044E0DFF8AC80404502D181
:1012B0004FF001080FE0DFF8A480404502D14FF065
:1012C000020808E0DFF89880404502D14FF003089B
:1012D00001E04FF0040808FA06F848EA0508CCF8DF
:1012E00008804D68D9F80060ED034D4601D51643DE
:1012F00000E096432E604D68DAF80060AD03554675
:1013000001D5164300E096432E604D68DBF800607F
:10131000ED025D4601D5164300E096432E604D6810
:10132000DEF80060AD02754601D5164300E0964335
:101330002E60641C0D682A46E5407FF431AFBDE89D
:10134000F88F00000004014000001110001002405E
:101350000000014000080140000C01400010014065
:1013600000140140014880687047000030000020F0
:101370000248816802781144816070473000002083
:10138000074810B5016841F010010160032000F02A
:1013900087F80F2000F006F800F026F8002010BDB6
:1013A0000020024070B50D4D04464FF47A71287844
:1013B000B1FBF0F00A490968B1FBF0F000F0F6FB70
:1013C00048B9102C07D200222146501E00F048F8E0
:1013D00000206C6070BD012070BD00003000002056
:1013E0003C000020704700000C4808B5816941F0BE
:1013F00001018161816901F001010091C16941F040
:101400008051C161C06900F080500090044841687B
:1014100021F0E06141F00071416008BD0010024020
:101420000000014000280DDB00F01F020121914067
:101430004009800000F1E020C0F88011BFF34F8F19
:10144000BFF36F8F7047002809DB00F01F020121F6
:1014500091404009800000F1E020C0F80011704781
:10146000F0B40E4B1B680C46C3F30223C3F107050F
:10147000042D00D90425191D072901D2002300E0FD
:10148000DB1E012606FA05F1491E214099409E40C7
:10149000761E16403143F0BC00F0FCBB0CED00E0C2
:1014A000064900F0070208684FF6FF03184040EABB
:1014B0000220034A10430860704700000CED00E072
:1014C0000000FA052DE9F0470F46050061D0434EB4
:1014D000306800F00700B84209D2306820F00700F9
:1014E00038433060306800F00700B84251D12868B6
:1014F0003B4C810712D5400703D5606840F4E0609B
:1015000060602878000703D5606840F46050606030
:101510006068A96820F0F000084360602878C00780
:1015200028D06868012810D02168022810D08907C7
:1015300000292EDA616821F0030101436160FFF7A1
:1015400011FF804641F288390DE021688903EFE7F9
:101550008901EDE7FFF706FFA0EB0801494502D935
:101560000320BDE8F0876068696800F00C00B0EB0C
:10157000810FEFD1306800F00700B8420BD9306816
:1015800020F0070038433060306800F00700B842B0
:1015900001D00120E5E72878400705D56068E968B3
:1015A00020F4E060084360602878000706D5606892
:1015B000296920F4605040EAC100606000F0A6F89C
:1015C0006168084AC1F30311515CC84006490860CC
:1015D00006480068FFF7E6FE0020C2E70020024050
:1015E00000100240181D00083C00002034000020BC
:1015F0002DE9F041FFF7B6FE404C0546206840F06B
:101600000100206005E000BFFFF7ACFE401B022890
:1016100067D820688007F7D5206820F0F80040F0F0
:1016200080002060FFF79EFE00250646656041F2BF
:10163000883704E0FFF796FE801BB84251D86068F7
:1016400010F00C0FF6D12F492D4808602E48006885
:10165000FFF7A8FE10B10120BDE8F081FFF782FE80
:101660000646206820F08070206004E0FFF77AFED4
:10167000801B022835D820688001F7D46560FFF709
:1016800071FE0646206820F41020206005E000BFAF
:10169000FFF768FE801B642823D820688003F7D4F6
:1016A000206820F480202060FFF75CFE064620685A
:1016B00020F08060206004E0FFF754FE801B642867
:1016C0000FD820680001F7D4FFF74CFE06462068CB
:1016D00020F08050206006E0FFF744FE801B642865
:1016E00001D90320B8E720688000F5D4E562606A7C
:1016F00040F080706062A5600020ADE700100240FD
:1017000000127A003C00002034000020F0B523A233
:1017100089B00FCA04AC84E80F0024A10FC98DE87A
:101720000F0026494A68264802F00C03042B2FD0EC
:10173000082B2DD104A8C2F38343C45CD00329D560
:10174000C86A00F00F001DF80020C86AC00316D553
:10175000C86AC96AC0F30310C1F30321401C891C85
:10176000A0FB0223A1FB0416154F0025A1FB070CCB
:1017700006FB07C601FB0561FEF758FD03E01048B4
:101780006043B0FBF2F09DF81D10A14200D140086B
:1017900009B0F0BD0B486043FAE700000000040503
:1017A0000607080900000000000D00000102030404
:1017B00005060708090A0B0C0D0E0F100010024059
:1017C00000127A0000093D002DE9F84F040070D0A6
:1017D0002078F14DC00749D06868C0F38100012826
:1017E00007D06868C0F38100022809D16868C00387
:1017F00006D52868800339D5A0680028E7D035E0F1
:10180000A068B0F5803F0BD010B1B0F5A02F11D07B
:10181000286820F480302860286820F4802002E0C6
:10182000286840F480302860A06890B1FFF79AFDE6
:1018300006460AE0286840F480202860F0E700BFF0
:10184000FFF790FD801B642876D828688003F7D5C1
:101850000CE0FFF787FD064605E000BFFFF782FDBD
:10186000801B6428F0D828688003F7D42078CB4EFA
:1018700080074FF001094FF000073AD5686810F073
:101880000C0F07D06868C0F38100022809D168688E
:10189000C00306D42868800715D56069012808D1DF
:1018A00011E06069B8B1C6F80090FFF75BFD8046B3
:1018B00006E042E1FFF756FDA0EB08000228C3D87E
:1018C00028688007F6D52868A16920F0F80040EA6A
:1018D000C10028600DE03760FFF744FD804605E059
:1018E000FFF740FDA0EB08000228ADD8286880076C
:1018F000F6D4207800072ED5A948E169E9B1C0F8EF
:101900000090FFF72FFD804606E000BFFFF72AFD9D
:10191000A0EB0800022897D8686A8007F6D5A1488E
:101920004FF4FA510068B0FBF1F0009000BF00984E
:10193000411E0091FAD20EE0B0E00760FFF712FD01
:10194000804605E0FFF70EFDA0EB0800022889D8CD
:10195000686A8007F6D42078400763D5E8694FF0BD
:101960000008C00009D4E86940F08050E861E869E7
:101970004FF0010800F0805000908B480168C905C5
:1019800012D40168834641F480710160FFF7EAFCDC
:10199000824605E0FFF7E6FCA0EB0A0064287DD84C
:1019A000DBF80000C005F5D5206901280AD008B190
:1019B000052813D0286A20F001002862286A20F048
:1019C000040002E0286A40F001002862206941F228
:1019D000883B98B1FFF7C6FC82460BE0286A40F0CE
:1019E00004002862EEE700BFFFF7BCFCA0EB0A0191
:1019F000594553D8286A8007F6D50CE0FFF7B2FCAA
:101A0000824605E0FFF7AEFCA0EB0A01594545D838
:101A1000286A8007F6D4B8F1000F03D0E86920F0F7
:101A20008050E861E06AD0B36968C90307D5696886
:101A3000C1F38101022902D1E96AC9037DD40228D8
:101A400008D0E86A20F48030E862B766FFF78AFCC5
:101A500080463BE02868C00005D5E86A616B00F06D
:101A6000F000884269D1B766FFF77CFC804605E04C
:101A7000FFF778FCA0EB0800642874D82868000100
:101A8000F6D4E86A616B20F0F0000843E862E86A87
:101A9000216B20F470600843E86201E063E018E025
:101AA000C6F86890FFF75EFC804605E0FFF75AFC39
:101AB000A0EB0800642856D828680001F6D508E095
:101AC000FFF750FCA0EB080064284CD82868000100
:101AD000F6D4206A90B36968C1F38101022949D024
:101AE0000228376603D0FFF73DFC04463EE0FFF7CF
:101AF00039FC074605E000BFFFF734FCC01B022895
:101B000031D828688001F7D4606AB0F5803F09D1E8
:101B1000E86A61680843E862E86AE16820F00F005B
:101B20000843E862D4E909010843696821F47411A3
:101B300008436860C6F8609001E028E029E0FFF7FC
:101B400011FC044605E000BFFFF70CFC001B022857
:101B500009D828688001F7D51BE000BFFFF702FC19
:101B6000001B022802D90320BDE8F88F28688001F5
:101B7000F4D40EE00128F7D06868626A00F480317E
:101B8000914204D1A16A00F47010884201D0012072
:101B9000EAE70020E8E700000010024000004242AF
:101BA000800442423C0000200070004010B5401EFE
:101BB000B0F1807F01D3012010BD4FF0E0246061BF
:101BC0000F21601700F066F80020A0610720206157
:101BD000002010BDFEE700000F4810B50D49016060
:101BE0000421416000214FF460228160C0E90312AA
:101BF0004FF480124261017641768176C176017799
:101C00004177FFF714F808B172B6FEE7BDE810405F
:101C1000FEF72ABC0064004040000020FEE7FEE71B
:101C200070477047FFF7A4BB70B594B03821684681
:101C3000FEF786FB14210EA8FEF782FB0125002487
:101C40002804CDE902040226CDE908600095059537
:101C500001944FF4E010CDE90A046846FFF7B4FDA3
:101C600008B172B6FEE70F20CDE90E064FF4806092
:101C7000CDE9104002210EA81294FFF723FC08B111
:101C800072B6FEE70148056714B070BD000042421D
:101C90007047FEE70907090E002804DB00F1E02089
:101CA00080F80014704700F00F0000F1E02080F889
:101CB000141D7047BFF34F8F05480168054A01F4B2
:101CC000E06111430160BFF34F8F00BFFDE70000EB
:101CD0000CED00E00400FA0508B5FEF74DFCFFF737
:101CE0004FFBFFF7A1FF0B48816941F020018161A3
:101CF000816901F020010091816941F00401816155
:101D0000806900F004000090FFF766FFFEF77CFB9F
:101D1000FCE700000010024000000000000000008E
:101D20000102030406070809481D000800000020FE
:101D3000400000008C010008881D000840000020C1
:101D400018070000A801000846000000000000007D
:101D50000000000000000000000000005245414467
:101D600059000000000000000024000800000000EE
:101D70000000000000000000010000001000000052
:081D8000000000000024F40043
:04000005080001519D
:00000001FF
