:020000040800F2
:100000005807002089010008631700081517000829
:1000100061170008FD020008E51700080000000055
:10002000000000000000000000000000671700084A
:100030006504000800000000651700086917000843
:10004000A3010008A3010008A3010008A301000800
:10005000A3010008A3010008A3010008A3010008F0
:10006000A3010008A3010008A3010008A3010008E0
:10007000A3010008A3010008A3010008A3010008D0
:10008000A3010008A3010008A3010008CD17000880
:10009000D9170008A3010008A3010008A301000864
:1000A000A3010008A3010008A3010008A3010008A0
:1000B000A3010008A3010008A3010008A301000890
:1000C000A3010008A3010008A3010008A301000880
:1000D000A3010008A3010008A3010008A301000870
:1000E000A3010008A3010008A301000800F002F822
:1000F00000F03AF80AA090E8000C82448344AAF188
:100100000107DA4501D100F02FF8AFF2090EBAE885
:100110000F0013F0010F18BFFB1A43F0010318473B
:100120005C1700007C170000103A24BF78C878C123
:10013000FAD8520724BF30C830C144BF04680C60ED
:10014000704700000023002400250026103A28BF35
:1001500078C1FBD8520728BF30C148BF0B60704739
:100160001FB51FBD10B510BD00F06BF81146FFF7AD
:10017000F7FF01F05BFB00F089F803B4FFF7F2FF33
:1001800003BC00F091F80000094880470948004787
:10019000FEE7FEE7FEE7FEE7FEE7FEE7FEE7FEE737
:1001A000FEE7FEE704480549054A064B7047000094
:1001B000CB170008ED000008580100205807002068
:1001C0005803002058030020B2F120030AD5C2F1E1
:1001D000200320FA02F001FA03F321FA02F140EAC7
:1001E0000300704721FA03F04FF0000170474FF011
:1001F000000200B5134694469646203922BFA0E877
:100200000C50A0E80C50B1F12001BFF4F7AF090782
:1002100028BFA0E80C5048BF0CC05DF804EB890073
:1002200028BF40F8042B08BF704748BF20F8022BB6
:1002300011F0804F18BF00F8012B704770477047CE
:100240007047754600F02CF8AE46050069465346E7
:1002500020F00700854618B020B5FFF7A3FFBDE8E2
:1002600020404FF000064FF000074FF000084FF01D
:10027000000B21F00701AC46ACE8C009ACE8C009AE
:10028000ACE8C009ACE8C0098D46704710B504461B
:10029000AFF300802046BDE81040FFF76EBF0000BE
:1002A00000487047F800002001491820ABBEFEE767
:1002B000260002007047000010B50D4CA078012800
:1002C00011D0607801280DD10A48062104F11003ED
:1002D00001611021016001461A1D074800F076F9FE
:1002E0000020607010BD00F049FD01F08DFA0000A3
:1002F000000000207800002040000020FEE7000001
:10030000174810B5082101610021816010220260A8
:10031000C160017518300123C0E905130161520164
:10032000026042608260C2604162C0E90713014618
:100330000C4800F0B9F908B100F095F8094800F050
:1003400085FC08B100F08FF80321064800F02CF975
:10035000002803D0BDE8104000F085B810BD0000B3
:10036000780000204000002070B5274D0126A5F13F
:1003700028042878452808D168784E2805D1A8781F
:10038000442802D100F0FAFCA67028786978EA784F
:1003900000EB0120A978090401EB02610844A06088
:1003A00028796979EA7900EB0120A979090401EB40
:1003B00002610844E060A26800252B460220216A01
:1003C00000F0E6FCD4E90810091D40F10000C4E982
:1003D0000810A560E2682B46022000F0D9FCD4E9A1
:1003E0000801001D41F10001C4E90801E56007486A
:1003F000054B01460661BDE87040183BA3F11002B1
:10040000034800F0E3B80000280000207800002036
:100410004000002010B500F0FBFC0D4800680D49BD
:1004200088420ED10C48002101600C4981604021B6
:10043000C1600B4900F04EFC09490120091F4870BA
:1004400010BD00F09BFCBDE8104000F099B8000022
:1004500000FC0008785634126800002000240008D0
:1004600004000020704772B6FEE700000649002035
:10047000C8610648016941F004010161016941F068
:100480004001016170470000D800002000200240B8
:10049000064A0021D16106490A6942F002020A6156
:1004A0004861086940F0400008617047D8000020AA
:1004B00000200240044B0022DA61044A136943F031
:1004C0000103136101807047D80000200020024022
:1004D00014480022C168CB06134904D5CA6942F00A
:1004E0000202CA611022C3685B0705D5CB6943F0DD
:1004F0000103CB6142F00402C369DB0707D0CB697B
:1005000043F00403CB61C16921F00101C161A2F58F
:100510008071013901D0C2607047C16921F00101C9
:10052000C161704700200240D800002070B5054628
:1005300000F072FD0646114C09E0681C07D025B199
:1005400000F06AFD801BA84201D9032070BDE0685D
:10055000C007F2D1E068800601D52020E060E068A5
:10056000C00605D4E069C00702D1E068400703D5A2
:10057000FFF7AEFF012070BD002070BD00200240DB
:10058000084810B5046800F07DFE00F093FB72B6D9
:100590000448001F006880F30888A446BDE81040A6
:1005A000604700000424000890F82020012A07D0AA
:1005B000022A05D0416A41F480214162012070473E
:1005C000006842690A43426100207047F0B590F824
:1005D00020500468A468012D05D0022D03D0416A83
:1005E00041F480215DE014F0406F01D1E50055D564
:1005F000C4F30164022C03D9416A41F4000150E0C4
:100600000125A5401D608D684FF4C0739DB1CE6873
:1006100035434E6845EAC605066803EB0417F551F5
:100620004FF4C275076805EB04150E697E51097D0C
:10063000012905D009E00E88CD6845EA4655EBE76B
:1006400001684E5946F480764E511179D579567924
:1006500041EA056195792D0445EA062529434FF4C1
:10066000C676056806EB0416A9511178D57841EADB
:100670000561957852782D0445EA022211434FF422
:10068000C475026805EB04155151006803EB0411B1
:10069000425842F0010242500020F0BD416A41F44C
:1006A000001141620120F0BD10B590F820300268C1
:1006B000012B07D0022B05D0416A41F48021416211
:1006C000012010BDD2F8000240F00100C2F8000283
:1006D000087D00F01F0301209840D2F81C328343AC
:1006E000C2F81C32CB69B3B9D2F80C328343C2F8DA
:1006F0000C328C894B6864F31F434C6902EBC404D1
:10070000C4F840320C890B6864F31F434C6902EB58
:10071000C404C4F84432CB69012B16D1D2F80C3290
:100720000343C2F80C320C884B6864F31F434C69D6
:1007300002EBC404C4F840320C89CB6864F31F4355
:100740004C6902EBC404C4F844328B69002BD2F824
:1007500004320FD053EA0003C2F804320B69002BB5
:10076000D2F8143208D00343C2F81432096A0129BE
:1007700004D008E08343EFE78343F5E7D2F81C1287
:100780000143C2F81C12D2F8000220F00100C2F8A6
:100790000002002010BD704730B590F82040012CB9
:1007A00005D0022C03D0416A41F480215DE0046849
:1007B000002955D02469A40754D04FF4D874056893
:1007C00004EB01142D5915F00405956005682D59A9
:1007D0004ED0ED08556005682C5904F00204D46031
:1007E0004FF4DA74056804EB01142D5905F00F0578
:1007F000156105682D59C5F30725956105682C59C4
:10080000240C54614FF4DC72046802EB0112A4580A
:100810001C700468A458240A5C700468A458240C52
:100820009C700468A258120EDA704FF4DE720468ED
:1008300002EB0112A4581C710468A458240A5C71CC
:100840000468A458240C9C710468A258120EDA7132
:10085000006881B1016941F020010161002030BDD3
:10086000E468A8E7416A41F400114162012030BD0B
:100870006D0D1560AFE7C16841F02001C160EDE783
:100880002DE9F05F0546006800244669D0F8049021
:100890008768D0F80CB0D0F810A0D0F81880F10715
:1008A00048D0F90714D001218160B80703D5284644
:1008B00000F0F9F90CE0780702D54FF4006407E086
:1008C000380702D54FF4805402E0284600F0EAF9D8
:1008D000F80516D529684FF480708860B80503D5EF
:1008E000284600F0E2F90CE0780502D544F4005403
:1008F00007E0380502D544F4804402E0284600F0C1
:10090000D3F9F80316D529684FF480308860B8030E
:1009100003D5284600F0CBF90CE0780302D544F467
:10092000004407E0380302D544F4803402E028464E
:1009300000F0BCF9300707D55FEACB6004D5296821
:10094000102044F40074C86070074FF0080707D502
:100950005FEA0B7004D52868C760284600F062F98A
:10096000B00706D52868C068800702D0284600F086
:100970005BF9700607D55FEACA6004D529681020C4
:1009800044F480640861B00607D55FEA0A7004D5B4
:1009900028680761284600F055F9F00606D5286852
:1009A0000069800702D0284600F04DF9B00308D551
:1009B0005FEAC96005D5296810204860284600F024
:1009C00043F9F00307D55FEA097004D5286847604A
:1009D000284600F06DF9300446D55FEA497040D5ED
:1009E000F00504D55FEAC87001D044F00104B005F9
:1009F00004D55FEA887001D544F00204700504D57F
:100A00005FEA487001D544F00404300529D518F098
:100A1000700F26D008F07000402815D006DC102892
:100A200009D020280AD0302816D10AE050280ED04C
:100A3000602811D10EE044F008040DE044F01004E9
:100A40000AE044F0200407E044F0400404E044F0ED
:100A5000800401E044F480742868816921F0700109
:100A60008161296804204860002C05D0686A204311
:100A700068622846FFF78FFEBDE8F09F70B504005E
:100A800003D094F8200010B104E0012070BD20468E
:100A900000F082F82068016841F00101016000F077
:100AA000BBFA0546052604E000F0B6FA401B0A280A
:100AB00011D820684068C007F6D02068016821F08E
:100AC0000201016000F0A8FA05460BE000F0A4FA6C
:100AD000401B0A2806D9606A40F40030606284F83E
:100AE0002060D2E7206840688007EFD4207E01288C
:100AF000206801683DD021F080010160607E0128FE
:100B00002068016838D021F040010160A07E0128F2
:100B10002068016833D021F020010160E07E0128C7
:100B2000206801682ED041F010010160207F01286B
:100B30002068016829D021F008010160607F012848
:100B40002068016824D021F004010160D4E9020189
:100B50000843D4E90412114308436168491E08435D
:100B60002168C86100206062012084F82000002014
:100B700070BD41F08001C0E741F04001C5E741F0A0
:100B80002001CAE721F01001CFE741F00801D4E7C6
:100B900041F00401D9E7000010B586B000210091B2
:100BA00001910291039100681B49884232D11B4890
:100BB000C16941F00071C161C16901F00071049126
:100BC000816941F0040181618069154C00F00400E5
:100BD00004904FF4006000906946204600F02CF924
:100BE000A014009002200190032003906946204643
:100BF00000F022F900221146132000F07BFA1320A6
:100C000000F06AFA00221146142000F073FA142052
:100C100000F062FA06B010BD00640040001002400F
:100C2000000801407047000010B5044B044A002141
:100C3000FFF7B2FDBDE81040FFF796BB280000208B
:100C4000B8000020704770477047000070B5044638
:100C500090F82000012804D0606A40F4002060620F
:100C600018E0022084F820002068016821F00101CA
:100C7000016000F0D1F905460EE000BF00F0CCF9AC
:100C8000401B0A2808D9606A40F4003060620520E1
:100C900084F82000012070BD20684068C007EDD1B5
:100CA000606270BD7047704770477047704770470B
:100CB00070470000064810B54FF0FF31C1600022B8
:100CC0000261C160C26000F0E7F9002010BD0000C1
:100CD000001002402DE9F047054626480F46012640
:100CE000017E01290FD00121814601762868DFF8B5
:100CF00088804CF25034022808D0A2462046FFF7E4
:100D000015FCA8B131E00220BDE8F0872046FFF7CE
:100D10000DFC08BB0120FFF7A9FB2046FFF706FCEE
:100D2000D8F81010064621F00401C8F810101CE095
:100D30004FF0FF303860AC6811E02046FFF7A8FBA9
:100D40005046FFF7F3FBD8F81010060021F002011F
:100D5000C8F8101001D03C6007E004F58064D5E9C4
:100D6000020100EB8120A042E7D8002189F8181089
:100D70003046C9E7D800002000200240034801693E
:100D800041F0800101610020704700000020024016
:100D90002DE9F05F07461C4888460024017E154671
:100DA0001E46012909D00121814601764CF2503AB4
:100DB0005046FFF7BBFB18B122E00220BDE8F09FD0
:100DC000012F02D0022F00D00427D346DFF83CA029
:100DD000220128463146FFF7F7F981B208EB4400BB
:100DE000FFF768FB5846FFF7A1FBDAF8102022F066
:100DF0000102CAF8102018B9641CE4B2BC42E7D35F
:100E0000002289F81820D9E7D800002000200240ED
:100E1000064900200A69120607D5054A4A60054AB4
:100E20004A600969090600D5012070470020024088
:100E300023016745AB89EFCD2DE9F84FDFF8B89175
:100E4000002409F1040A0AF1040B23460F270BF1D1
:100E5000040EC9E00125A5402A40AA427DD1674E73
:100E6000D1F804C0ACEB0608B44532D014DCBCF1B8
:100E7000030F3AD009DCBCF1000F2AD0BCF1010FFE
:100E80001CD0BCF1020F31D11DE0BCF1110F17D005
:100E9000BCF1120F2AD119E0B8F5881F19D006DC71
:100EA000B8F5803F15D0B8F5801F1FD111E0B8F517
:100EB000001F0ED0B8F5041F18D10AE0CB6815E06A
:100EC000CB681B1D12E0CB6808330FE0CB680C33F6
:100ED0000CE08B682BB1012B4FF0080303D0456168
:100EE00004E0042302E0056100E00023FF2A01D8AA
:100EF000064601E000F104064FEA840501D9A5F198
:100F00002005D6F8008007FA05FC28EA0C0803FA49
:100F100005F548EA0508C6F800804D68ED0062D581
:100F2000374DAE6946F00106AE61AD6924F00306A7
:100F300005F001050095334D06EB050CDCF8085073
:100F4000A607360F07FA06F825EA0805DFF8B88085
:100F5000404503D14FF0000817E044E0DFF8AC80D3
:100F6000404502D14FF001080FE0DFF8A480404572
:100F700002D14FF0020808E0DFF89880404502D126
:100F80004FF0030801E04FF0040808FA06F848EAB9
:100F90000508CCF808804D68D9F80060ED034D468F
:100FA00001D5164300E096432E604D68DAF80060E4
:100FB000AD03554601D5164300E096432E604D68BB
:100FC000DBF80060ED025D4601D5164300E0964374
:100FD0002E604D68DEF80060AD02754601D51643FF
:100FE00000E096432E60641C0D682A46E5407FF4BD
:100FF00031AFBDE8F88F000000040140000011107F
:10100000001002400000014000080140000C0140B7
:101010000010014000140140014880687047000042
:1010200030000020024881680278114481607047D6
:1010300030000020074810B5016841F01001016040
:10104000032000F077F80F2000F006F800F026F8F3
:10105000002010BD0020024070B50D4D04464FF435
:101060007A712878B1FBF0F00A490968B1FBF0F019
:1010700000F03CFB48B9102C07D200222146501E3C
:1010800000F038F800206C6070BD012070BD0000D9
:10109000300000203C000020704700000C4808B5DC
:1010A000816941F001018161816901F001010091D3
:1010B000C16941F08051C161C06900F08050009069
:1010C0000448416821F0E06141F00071416008BDD1
:1010D0000010024000000140002809DB00F01F0260
:1010E000012191404009800000F1E020C0F800118A
:1010F00070470000F0B40E4B1B680C46C3F302238C
:10110000C3F10705042D00D90425191D072901D2B3
:10111000002300E0DB1E012606FA05F1491E2140EE
:1011200099409E40761E16403143F0BC00F05BBBF8
:101130000CED00E0064900F0070208684FF6FF03D7
:10114000184040EA0220034A10430860704700003C
:101150000CED00E00000FA052DE9F0470F46050010
:1011600061D0434E306800F00700B84209D23068C1
:1011700020F0070038433060306800F00700B842C4
:1011800051D128683B4C810712D5400703D56068D0
:1011900040F4E06060602878000703D5606840F4A0
:1011A000605060606068A96820F0F00008436060EB
:1011B0002878C00728D06868012810D02168022844
:1011C00010D0890700292EDA616821F0030101435C
:1011D0006160FFF721FF804641F288390DE0216808
:1011E0008903EFE78901EDE7FFF716FFA0EB0801A0
:1011F000494502D90320BDE8F0876068696800F0BE
:101200000C00B0EB810FEFD1306800F00700B8425E
:101210000BD9306820F0070038433060306800F0A8
:101220000700B84201D00120E5E72878400705D53E
:101230006068E96820F4E06008436060287800078F
:1012400006D56068296920F4605040EAC1006060FA
:1012500000F086F86168084AC1F30311515CC84088
:101260000649086006480068FFF7F6FE0020C2E75E
:1012700000200240001002406C1800083C000020D2
:10128000340000202DE9F041FFF7C6FE304C054642
:10129000206840F00100206005E000BFFFF7BCFEC1
:1012A000401B022843D820688007F7D5206820F02B
:1012B000F80040F080002060FFF7AEFE00250646F3
:1012C000656041F2883704E0FFF7A6FE801BB84254
:1012D0002DD8606810F00C0FF6D11F491D4808602A
:1012E0001E480068FFF7B8FE10B10120BDE8F0818C
:1012F000FFF792FE0646206820F08070206004E030
:10130000FFF78AFE801B022811D820688001F7D4DD
:101310006560FFF781FE0646206820F410202060FB
:1013200007E000BFFFF778FE801B642801D9032087
:10133000DCE720688003F5D4206820F4802020605A
:10134000606A40F080706062A5600020CEE7000017
:101350000010024000127A003C00002034000020FF
:1013600012A185B00FC98DE80F0014A0144A0068BF
:1013700004905168134801F00C03042B10D0082B83
:101380000ED1C1F38343C9031DF803000AD5516888
:1013900004AAC1F34041515C0A4A5043B0FBF1F04A
:1013A00005B0704708494843FAE700000203040506
:1013B000060708090A0B0C0D0E0F101001020000A1
:1013C0000010024000127A0000093D002DE9F84F9C
:1013D000040070D02078C04DC00749D06868C0F3C1
:1013E0008100012807D06868C0F38100022809D174
:1013F0006868C00306D52868800339D5606800286E
:10140000E7D035E06068B0F5803F0BD010B1B0F5A3
:10141000A02F11D0286820F480302860286820F49C
:10142000802002E0286840F480302860606890B135
:10143000FFF7F2FD06460AE0286840F480202860A5
:10144000F0E700BFFFF7E8FD801B642873D8286829
:101450008003F7D50CE0FFF7DFFD064605E000BF8F
:10146000FFF7DAFD801B6428F0D828688003F7D4E2
:1014700020789A4E80074FF001094FF0000839D5C7
:10148000686810F00C0F07D06868C0F3810002286C
:1014900009D16868C00306D42868800714D520697C
:1014A000012808D110E02069B0B1C6F80090FFF71C
:1014B000B3FD074605E00AE1FFF7AEFDC01B0228B9
:1014C000C4D828688007F7D52868616920F0F8003B
:1014D00040EAC10028600DE0C6F80080FFF79CFDDF
:1014E000074604E0FFF798FDC01B022823D82868B0
:1014F0008007F7D4207800072CD57948A169D9B1A5
:10150000C0F80090FFF788FD074604E0FFF784FD70
:10151000C01B02280FD8686A8007F7D571484FF4BE
:10152000FA510068B0FBF1F0009000BF0098411E36
:101530000091FAD20EE080E0C0F80080FFF76CFD69
:10154000074604E0FFF768FDC01B022875D8686AEB
:101550008007F7D42078400760D5E8690027C000ED
:1015600008D4E86940F08050E861E869012700F09C
:10157000805000905C480168C90513D40168834617
:1015800041F480710160FFF747FD824606E000BF2D
:10159000FFF742FDA0EB0A0064284ED8DBF80000FC
:1015A000C005F5D5E06801280AD008B1052813D098
:1015B000286A20F001002862286A20F0040002E076
:1015C000286A40F001002862E06841F2883B98B147
:1015D000FFF722FD82460BE0286A40F004002862F3
:1015E000EEE700BFFFF718FDA0EB0A0159455AD8F6
:1015F000286A8007F6D50CE0FFF70EFD824605E06D
:10160000FFF70AFDA0EB0A0159454CD8286A80076C
:10161000F6D41FB1E86920F08050E861E06988B332
:101620006968C1F38101022944D00228C6F86080AC
:1016300004D0FFF7F1FC044638E034E0FFF7ECFC9F
:10164000074604E0FFF7E8FCC01B02282BD82868F7
:101650008001F7D4206AB0F5803F05D16868A168A1
:1016600020F4003008436860D4E908010843696841
:1016700021F4741108436860C6F86090FFF7CCFC51
:10168000044606E025E000BFFFF7C6FC001B022869
:1016900009D828688001F7D51BE000BFFFF7BCFC24
:1016A000001B022802D90320BDE8F88F28688001BA
:1016B000F4D40EE00128F7D06868226A00F4803183
:1016C000914204D1616A00F47010884201D0012077
:1016D000EAE70020E8E70000001002400000424274
:1016E000800442423C0000200070004010B5401EC3
:1016F000B0F1807F01D3012010BD4FF0E024606184
:101700000F21601700F06FF80020A0610720206112
:10171000002010BDFEE70000104810B50E49016022
:101720000421416000214FF460228160C0E903126E
:101730004FF4801242610176012242768276C276AF
:1017400001774177FFF79AF908B172B6FEE7BDE875
:101750001040FEF7D5BD00000064004040000020AE
:10176000FEE7FEE770477047FFF75CBC30B58FB00F
:1017700028216846FEF73BFD14210AA8FEF737FD35
:1017800001210804CDE900100024029402250491EF
:10179000CDE907504FF4E01009906846FFF716FEB8
:1017A00008B172B6FEE70F20CDE90A054FF480605C
:1017B000CDE90C4002210AA80E94FFF7CDFC0028C9
:1017C00001D072B6FEE70FB030BD70470148FFF799
:1017D00057B80000400000200148FFF751B8000052
:1017E00040000020FEE70907090E002804DB00F195
:1017F000E02080F80014704700F00F0000F1E020B6
:1018000080F8141D70470000BFF34F8F0548016832
:10181000054A01F4E06111430160BFF34F8F00BF3F
:10182000FDE700000CED00E00400FA0508B5FEF746
:10183000F1FDFFF7FFFBFFF799FF0B48816941F0CE
:1018400020018161816901F020010091816941F0ED
:1018500004018161806900F004000090FFF75CFFE3
:10186000FEF72AFDFCE70000001002400000000027
:101870000000000001020304060708099C18000884
:10188000000000204000000028010008DC180008CB
:101890004000002018070000440100084600000036
:1018A0000000000000000000000000000000000038
:1018B0005245414459000000000000000024000887
:1018C0000000000000000000000000000100000017
:0C18D00010000000000000000024F400E4
:04000005080000ED02
:00000001FF
